:030000000212D316
:0C12D300787FE4F6D8FD75812002131A24
:100E90004204E900004204F500004200E90000427B
:100EA0000043000042004A00014A04EB3F065B4F4A
:100EB000666D7D077F6F480004000102030405068C
:100EC0000748000D0000767938383F0045004E0095
:100ED000231C230045003E00235423004500370017
:100EE000230823005204D30000008000C000E0006B
:100EF000F000F800FC00FE00FF5000D5007F00BFAE
:100F000000DF00EF00F700FB00FD00FE4204FB00E5
:100F1000004204E7000042001B00004204E500001C
:100F2000420033000342004500004204F900004241
:100F30000047000042004C000054001F0000000069
:100F400000000000000000000000000000000000A1
:0F0F50004204F70000420000000042001D0000B4
:10160400E4FDFC9004E9F0A3F09004E5E0FEA3E01F
:10161400FF9004E9E0FAA3E0FBC39FEA9E502AEBA3
:1016240025E0FFEA33FE74532FF58274003EF58300
:10163400E0FEA3E02DFDEE3CFC9004EAE004F07033
:0D164400C89004E9E004F080C0AE04AF05DA
:011651002276
:0A090500C29C9000E7EEF0A3EFF0B3
:10090F009004F9E0FCA3E0FD25E0FFEC33FE745307
:10091F002FF58274003EF583A3E025E0FF0582D515
:10092F00820215831582E033FE741F2FF582740047
:10093F003EF58374FFF5F01211699004E9ECF0A312
:10094F00EDF09004E5E0FEA3E0FF9004E9E0FCA3E6
:10095F00E0FDC39FEC9E5035ED25E0FFEC33FE74B8
:10096F00552FF58274003EF583E0FCA3E0FD745330
:10097F002FF58274003EF583ECF0A3EDF09004EABE
:10098F00E004F070BD9004E9E004F080B59004E657
:10099F00E024FFF09004E5E034FFF0E0FCA3E0FD7D
:1009AF00540760087F017A007B0180067F007A0080
:1009BF007B00EDAE047803CEC313CE13D8F92BFF13
:1009CF00EE3A900033F0A3EFF0C39004FAE09D905D
:1009DF0004F9E09C40149004E6E024FFFE9004E547
:0B09EF00E034FF9004F9F0A3CEF022EA
:100F60009004E9E0FCA3E0FD25E0FFEC33FE7453C0
:100F70002FF58274003EF583A3E025E0FF0582D5BE
:100F8000820215831582E033FE741F2FF5827400F0
:100F90003EF58374FFF5F01211699004F5ECF0A3AF
:100FA000EDF09004E5E0FEA3E0FF9004F5E0FCA383
:100FB000E0FDC39FEC9E5035ED25E0FFEC33FE7461
:100FC000552FF58274003EF583E0FCA3E0FD7453D9
:100FD0002FF58274003EF583ECF0A3EDF09004F65B
:100FE000E004F070BD9004F5E004F080B59004E6F4
:100FF000E024FFF09004E5E034FFF0E0FEA3E0FF22
:1010000054077C0060047D0180027D00EF7803CEF0
:10101000C313CE13D8F92DFFEE3C900033F0A3EFAD
:02102000F022BC
:10000E0075BCEF00000000E5BC30E4FB53BCEFAF65
:01001E00BD24
:01001F0022BE
:100DAD009004E5E0FFA3E09004E9CFF0A3EFF0900D
:100DBD0004E9E0FEA3E0FFD39400EE94004055EF6C
:100DCD0025E0FFEE33FE74512FF58274003EF5835E
:100DDD00E0FCA3E0FD74532FF58274003EF583EC27
:100DED00F0A3EDF09004EAE024FFF09004E9E03484
:100DFD00FFF080BB900054E025E0FF900053E033FE
:100E0D00FE741F2FF58274003EF583E0FEA3E064AF
:100E1D00044E70191216527C007D091210DEED245D
:100E2D0001FEE43C900053F0A3CEF080C790005437
:100E3D00E025E0FF900053E033FE741F2FF5827420
:100E4D00003EF583E475F0011211699004E6E004AB
:100E5D00F070069004E5E004F09004E5E0FEA3E0F8
:100E6D00FF54077C0060047D0180027D00EF780354
:100E7D00CEC313CE13D8F92DFFEE3C900033F0A363
:030E8D00EFF02261
:081727007F367EC7DEFEDFFC09
:01172F002297
:0E17180000007F097E687D8BDDFEDEFCDFFABF
:0117260022A0
:1016E60012000EEFF4601812172712000EEFF460C6
:1016F6000EEF54E0FF780508800103D8FDFF227F36
:0117060007DB
:0117070022BF
:10080A009004FAE025E0FF9004F9E033FE74532FD8
:10081A00F58274003EF583E0FCA3E0FDD39405EC79
:10082A0094004003020901ED25E0FFEC33FE741F3A
:10083A002FF58274003EF583E0FCA3E0D39400EC2C
:10084A009400500302090174212FF58274003EF5C9
:10085A0083E0FEA3E0D39400EE9400500302090162
:10086A009004FAE025E0FF9004F9E033FE74532F78
:10087A00F58274003EF583A3E025E0FF0582D58268
:10088A000215831582E033FE74232FF58274003E2D
:10089A00F583E0FCA3E0D39400EC9400405974255E
:1008AA002FF58274003EF583E0FEA3E0D39400EEB8
:1008BA00940040439004FAE025E0FF9004F9E03305
:1008CA00FE74532FF58274003EF583A3E025E0FF02
:1008DA000582D5820215831582E033FE74272FF52F
:1008EA008274003EF583E0FEA3E0D39400EE940008
:0B08FA0040057E007F0122E4FEFF228B
:101544009004FAE025E0FF9004F9E033FE74532F91
:10155400F58274003EF583E0FCA3E0FDD39408EC2F
:10156400940040028038ED25E0FFEC33FE741F2F19
:10157400F58274003EF583E0FCA3E0D39402EC947E
:1015840000401B74212FF58274003EF583E0FEA316
:10159400E0D39402EE940040057E007F0122E4FE35
:0215A400FF2224
:10169F009004FAE025E0FF9004F9E033FE74532F35
:1016AF00F58274003EF583A3E025E0FF0582D58225
:1016BF000215831582E033FE741F2FF58274003EEE
:1016CF00F583E0FEA3E0C39404EE940040057E0092
:0716DF007F0122E4FEFF225F
:1014D600E4F580900009E0F5A0900015E0FEA3E099
:1014E600FF7C007D641210DE7C007D0A1210DE7423
:1014F600EB2DF58274043CF583E0F5807FF47E01E4
:10150600121539E4F58090000AE0F5A0900015E088
:10151600FEA3E0FF7C007D0A1210DE7C007D0A122D
:1015260010DE74EB2DF58274043CF583E0F5807FC4
:03153600F47E013F
:0B153900EF1FAC0670011E4C70F62284
:100AEA00E49004E9F0A3F09004E5E0FEA3E0FF90AF
:100AFA0004E9E0FCA3E0FDC39FEC9E4003020BD88F
:100B0A00ED2401FEE43C9004F5F0A3CEF09004E558
:100B1A00E0FEA3E0FF9004F5E0FCA3E0FDC39FEC38
:100B2A009E4003020BC4ED25E0FFEC33FE74532F05
:100B3A00F58274003EF583E0FCA3E0FD9004EAE050
:100B4A0025E0FB9004E9E033FA74532BF582740034
:100B5A003AF583E0FEA3E0D39DEE9C404974532B03
:100B6A00F58274003AF583E0FFA3E0900015CFF018
:100B7A00A3EFF09004F6E025E0FF9004F5E033FEE1
:100B8A0074532BF58274003AF583ECF0A3EDF090E0
:100B9A000015E0FCA3E0FD74532FF58274003EF5C6
:100BAA0083ECF0A3EDF09004F6E004F06003020B8E
:100BBA00179004F5E004F0020B179004EAE004F041
:0F0BCA006003020AF19004E9E004F0020AF1224C
:10170800D2A47F287E0012153920A403120AEA22E7
:100BD9001216527C007D051211339004FAE025E0CB
:100BE900FF9004F9E033FE74532FF58274003EF54B
:100BF90083E0FEA3E0FF2DFDEE3CFC900015F0A381
:100C0900EDF0C29C9000E7ECF0A3EDF07599CA9065
:100C1900001512090A900016E004F07006900015FC
:100C2900E004F0D3900016E09409900015E09400D8
:100C39004003020CC2E4900017F0A3F09004E9F01D
:100C4900A3F09004E5E0FEA3E0FF9004E9E0FCA333
:100C5900E0FDC39FEC9E5043ED25E0FFEC33FE74AD
:100C6900532FF58274003EF583E0FEA3E0FF900068
:100C790015E0FCA3E0FDEFB50511EEB5040D120F6B
:100C890060900017E4F0A304F080109004EAE004F7
:100C9900F070AF9004E9E004F080A7900017E070CD
:100CA90002A3E06014900016E004F06003020C2C2B
:0A0CB900900015E004F0020C2C225C
:1009FA009004FAE025E0FF9004F9E033FE74532FE7
:100A0A00F58274003EF583E0FFA3E0900015CFF075
:100A1A00A3EFF0900015E0FEA3E0FFD39409EE9453
:100A2A00004003020AE9EF25E0FFEE33FE741F2FB0
:100A3A00F58274003EF583E0FEA3E0C39403EE94CE
:100A4A00005003020AE9900017E4F0A37403F0E4EB
:100A5A009004E9F0A3F09004E5E0FEA3E0FF90041F
:100A6A00E9E0FCA3E0FDC39FEC9E505F900017E015
:100A7A007002A3E06055ED25E0FFEC33FE74532FBE
:100A8A00F58274003EF583E0FEA3E0FF900015E0D6
:100A9A00FCA3E0FDEFB50523EEB5041F120F60902D
:100AAA0004EAE024FFF09004E9E034FFF090001833
:100ABA00E024FFF0900017E034FFF09004EAE0042D
:100ACA00F070939004E9E004F0808B900016E00443
:100ADA00F06003020A1D900015E004F0020A1D22CC
:101197009004FAE025E0FF9004F9E033FE74532F42
:1011A700F58274003EF583E0FFA3E0900015CFF0D1
:1011B700A3EFF0E025E0FF900015E033FE741F2F4A
:1011C700F58274003EF583E4F0A3F012090FE49072
:1011D70004E9F0A3F09004E5E0FEA3E0FF9004E942
:1011E700E0FCA3E0FDC39FEC9E5047ED25E0FFEC3C
:1011F70033FE74532FF58274003EF583E0FEA3E0BF
:10120700FF900015E0FCA3E0FDEFB50515EEB50472
:1012170011120F609004EAE024FFF09004E9E03433
:10122700FFF09004EAE004F070AB9004E9E004F00A
:0312370080A3226F
:101022009004F9E0FCA3E0FD25E0FBEC33FA7453F5
:101032002BF58274003AF583A3E025E0FF0582D503
:10104200820215831582E033FE741F2FF58274002D
:101052003EF58374FFF5F012116974532BF5827417
:10106200003AF583E0FEA3E064094E7018ED25E036
:10107200FFEC33FE74532FF58274003EF583E4F0E7
:10108200A304F0801E9004FAE025E0FF9004F9E04A
:1010920033FE74532FF58274003EF583E475F0013C
:1010A2001211699004FAE025E0FF9004F9E033FEA2
:1010B20074532FF58274003EF583A3E025E0FF050B
:1010C20082D5820215831582E033FE741F2FF582CA
:0C10D20074003EF583E475F00102116922
:1006DF0030002D12080AEF4E60269000E9E07002FC
:1006EF00A3E0701C900043E07002A3E07012120BA5
:1006FF00D9E490004AF0A3F0900002F0A304F02296
:10070F009004FAE025E0FF9004F9E033FE74532FD4
:10071F00F58274003EF583E0FEA3E0FF4E602420D7
:10072F00B321D39000EAE094009000E9E0940040F8
:10073F00121209057599CA9000EAE024FFF09000A3
:10074F00E9806A20B32A9000E9E07002A3E07020EC
:10075F00121544EF4E60191209FA90004AE4F0A303
:10076F007402F0E4900002F0A3F09000E902080197
:10077F009004FAE025E0FF9004F9E033FE74532F64
:10078F00F58274003EF583E0FEA3E04E603A20B29E
:10079F0037D3900044E09400900043E09400402849
:1007AF0012090F900044E024FFF0900043E034FF63
:1007BF00F090004BE024FFF090004AE034FFF090FF
:1007CF000002E4F0A304802E20B22F900043E070CB
:1007DF0002A3E0702512169FEF4E601E1211979024
:1007EF00004AE4F0A37402F0E4900002F0A3F0904A
:0B07FF000043F0A37402F01217182250
:100433001216E690000CEFF064077003020597E0D4
:10044300900049F090000CE0640760071216E6EF95
:10045300F080F1900049E014606F14700302055FAF
:1004630014700302057814601014700302051B2432
:10047300056003020597D20022D39004FAE09400AA
:100483009004F9E09400401BA3E024FFF09004F9EA
:10049300E034FFF0E0FEA3E07803CEC313CE13D81D
:1004A300F9805D9004E6E024FFFE9004E5E034FF6C
:1004B3009004F9F0A3CEF09004F9E0FEA3E07803F2
:1004C300CEC313CE13D8F980379004E6E024FFFFA0
:1004D3009004E5E034FFFEC39004FAE09F9004F932
:1004E300E09E5026A3E004F070069004F9E004F0C7
:1004F3009004F9E0FEA3E07803CEC313CE13D8F93A
:10050300FF900045EEF0A3EFF022E49004F9F0A38E
:10051300F0900045F0A3F0229004FAE025E0FF906C
:1005230004F9E033FE74532FF58274003EF583E043
:10053300FEA3E0FF4E605D900043E07002A3E07015
:10054300539000E9E07002A3E07049120905759920
:10055300CA900002E4F0A304F0021718900043E0ED
:100563007002A3E0702E9000E9E07002A3E0702413
:10057300120DAD8017900043E07002A3E070159058
:1005830000E9E07002A3E0700B121022900002E475
:05059300F0A304F022BA
:10146300C2A3E49004F5F0A3F0E49004E9F0A3F040
:10147300E4F5809004E9E0FEA3E0FF2404F5827420
:10148300003EF583E0F5A0740D2FF58274003E1243
:1014930015309004EAE004F070069004E9E004F0EB
:1014A300C39004EAE094089004E9E0940040C190FA
:1014B30004F6E004F070069004F5E004F0C3900431
:1014C300F6E094909004F5E09401409D7FE87E035C
:0314D300021539C6
:10135F00121604900015EEF0A3EFF0C2A3E4900470
:10136F00E9F0A3F0E4F5809004E9E0FEA3E0FF24A8
:10137F0004F58274003EF583E0F5A0744E2FF582DC
:10138F0074003E1215309004EAE004F070069004E9
:10139F00E9E004F0C39004EAE094059004E9E094D6
:1013AF000040C11214D6E4F58090000BE0F5A09038
:1013BF000015E0FEA3E0FF7C007D0A1210DE74EB47
:1013CF002DF58274043CF583E0F5807FF47E0102F5
:0213DF001539BE
:1013E100121604900015EEF0A3EFF0C2A3E49004EE
:1013F100E9F0A3F0E4F5809004E9E0FEA3E0FF2426
:1014010004F58274003EF583E0F5A0743E2FF58269
:1014110074003E1215309004EAE004F07006900466
:10142100E9E004F0C39004EAE094059004E9E09453
:101431000040C11214D6E4F58090000BE0F5A090B5
:101441000015E0FEA3E0FF7C007D0A1210DE74EBC4
:101451002DF58274043CF583E0F5807FF47E010272
:0214610015393B
:10006600C2A3E49004E9F0A3F09004E9E0FCA3E065
:10007600FDC39408EC94004003020189900045E01A
:10008600FEA3E07803C333CE33CED8F92DFFEC3E82
:10009600FED39004E6E09F9004E5E09E5003020143
:1000A60089E4F5809004E9E0FCA3E0FD2404F582F0
:1000B60074003CF583E0F5A09004FAE05407FBEDEC
:1000C6006B7001EC706490004CE0FCA3E0FDC394FF
:1000D6003CEC94005011E4F580E004F070069000CA
:1000E6004CE004F002016EC3ED9478EC94005031BC
:1000F600EF25E0FFEE33FE74532FF58274003EF5D4
:1001060083E0FEA3E024EBF58274043EF583E0F57C
:100116008090004DE004F0704F90004CE004F080B9
:1001260047E490004CF0A3F0803E900045E0FEA32B
:10013600E07803C333CE33CED8F9FF9004EAE02F3C
:10014600FF9004E9E03EFEEF25E0FFEE33FE745338
:100156002FF58274003EF583E0FEA3E024EBF582E2
:1001660074043EF583E0F5807F907E011215399088
:1001760004EAE004F0600302006F9004E9E004F092
:1001860002006F90001BA3E0F580D2A3900047E029
:10019600FAA3E0FBC3943CEA940050349004E7E0F1
:1001A600FEA3E0FF9004FBE05EFEA3E05FFF90008D
:1001B6004AE04EFEA3E04FFF90001BEEF0A3EFF0E7
:1001C600900048E004F07066900047E004F0805E1E
:1001D600C3EB9478EA9400502A90004AE0FEA3E02C
:1001E600FF9004FBE04EFEA3E04FFF90001BEEF0F5
:1001F600A3EFF0900048E004F07033900047E0046D
:10020600F0802B9004E7E0FEA3E0FF9004FBE05EA5
:10021600FEA3E05FFF90004AE04EFEA3E04FFF9092
:10022600001BEEF0A3EFF0E4900047F0A3F07FC8C8
:100236007E00121539900034E025E0FF900033E08F
:1002460033FE74D32FF58274043EF583E0FFA3E0FA
:100256009004FBCFF0A3EFF0900046E025E0FF907E
:100266000045E033FE74D52FF58274003EF583E039
:0F027600FFA3E09004E7CFF0A3EFF0E4F58022C0
:10123A00438E4053890F438920758B70758D70D208
:10124A008E438E805389F0438902758A70758C703B
:10125A00C28DD28C438E0475D76675D6EA438E103A
:10126A0053877F759850538EFE75A240D2BCE4F521
:10127A00937594FFF5957596FFC2A3759D80F5BD8C
:10128A0075BC8FF597C2ABD2A9D2AC75AF04C28830
:10129A00C28AD2AF90001BF0A3F0C200900035F0D2
:1012AA00A304F0E490003CF0A3F090004AF0A304F9
:1012BA00F09000E5E4F0A304F0900002E4F0A30447
:0912CA00F0E49000D3F0A3F0223F
:03000B00021730A9
:0917300020B703B2B532C2B53294
:03002300020CC309
:100CC300C0E0C083C082C0D075D000C005C006C0DC
:100CD3000730994BC299900000E0FEA3E0FFC39454
:100CE30001EE940050179000E7A3E0F599900001FE
:100CF300E004F0702A900000E004F08022EF640129
:100D03004E7013900001E004F07006900000E004C0
:100D1300F07599558009900000E4F0A3F0D29C305F
:100D23009859C298AF99900019E4F0A3EFF090009E
:100D330019E07004A3E0645570099004F7F0A3F080
:100D430075AF049004F7E07002A3E0602EAF99EF53
:100D5300FD90001EE025E0FF90001DE033FE74EBE4
:100D63002FF58274003EF583E4F0A3EDF090001EAE
:100D7300E004F0700690001DE004F0900019E070AC
:100D830004A3E064CA70149004F7F0A304F075AFF1
:100D93000075800090001DE4F0A3F0D007D006D0CA
:0A0DA30005D0D0D082D083D0E0321A
:10059800E49004E9F0A3F01216527C007D091210D1
:1005A800DEED2401FDE43CFC9004EAE025E0FF9048
:1005B80004E9E033FE74532FF58274003EF583ECB2
:1005C800F0A3EDF074532FF58274003EF583A3E099
:1005D80025E0FF0582D5820215831582E033FE747B
:1005E8001F2FF58274003EF583E0FEA3E064034EFE
:1005F8007002803B9004EAE025E0FF9004E9E033D4
:10060800FE74532FF58274003EF583A3E025E0FFC6
:100618000582D5820215831582E033FE741F2FF5FB
:100628008274003EF583E0FEA3E064044E702F124E
:1006380016527C007D091210DEED2401FDE43CFC1D
:100648009004EAE025E0FF9004E9E033FE74532FBC
:10065800F58274003EF583ECF0A3EDF080969004EB
:10066800EAE025E0FF9004E9E033FE74532FF582B9
:1006780074003EF583A3E025E0FF0582D5820215CC
:10068800831582E033FE741F2FF58274003EF583D4
:10069800E475F0011211699004EAE004F070069024
:1006A80004E9E004F0C39004EAE094149004E9E05B
:1006B8009400500302059F9004E5E4F0A37414F03D
:1006C800900033E4F0A37403F0E4900045F0A3F045
:0706D8009004F9F0A3F022E9
:1002850090001DE07002A3E07003020432D39000D9
:100295001EE0940090001DE094005003020432908B
:1002A50000EBE0FEA3E0FF64554E70030203C9EFC7
:1002B50064CA4E70030203C9900035E07002A3E0E2
:1002C5007032C39000ECE0940A9000EBE09400409B
:1002D50023121604EF240AFFE43EFE900015F0A356
:1002E500EFF0C29C9000E7EEF0A3EFF07599CA120B
:1002F50013E180FB9000EBE0FEA3E0FFD39400EE5A
:10030500940050030203C9EF940AEE9400400302DF
:1003150003C99004E5E0FFA3E09004E9CFF0A3EF63
:10032500F09004E9E0FEA3E0FFD39400EE940040D2
:1003350035EF25E0FFEE33FE74512FF58274003E54
:10034500F583E0FCA3E0FD74532FF58274003EF5C0
:1003550083ECF0A3EDF09004EAE024FFF09004E9CB
:10036500E034FFF080BB9000EBE0FEA3E0FF9000DF
:1003750053EEF0A3EFF025E0FFEE33FE741F2FF5EB
:100385008274003EF583E475F0011211699004E66C
:10039500E004F070069004E5E004F09004E5E0FE6A
:1003A500A3E0FF54077C0060047D0180027D00EF1F
:1003B5007803CEC313CE13D8F92DFFEE3C9000334E
:1003C500F0A3EFF0E49004F5F0A3F090001EE02414
:1003D500FFFF90001DE034FFFE9004F5E0FCA3E074
:1003E500FDC39FEC9E5035ED25E0FFEC33FE74ED2B
:1003F5002FF58274003EF583E0FCA3E0FD74EB2F3E
:10040500F58274003EF583ECF0A3EDF09004F6E080
:1004150004F070B79004F5E004F080AF90001EE0A2
:0E04250024FFF090001DE034FFF0020292224E
:0300630002002672
:10002600C0E0C0F0C083C082C0D075D000C000C0A0
:1000360002C003C004C005C006C00712170812029A
:1000460085D007D006D005D004D003D002D000D08A
:0A005600D0D082D083D0F0D0E03289
:1015A60012123A12059812146390004AE07002A3D0
:1015B600E0700790004AF0A304F0E4900035F0A331
:1015C600F0121708D2A4120066E4F580121708126A
:1015D60004331217081206DF121708C2009004E53A
:1015E600E07002A3E07012C29C9000E7F0A3740AB8
:0E15F600F07599CA12135F80FB12170880ABC4
:1012DF000215A6E493A3F8E493A34003F68001F26A
:1012EF0008DFF48029E493A3F85407240CC8C33310
:1012FF00C4540F4420C8834004F456800146F6DFDF
:10130F00E4800B0102040810204080900E90E47ED0
:10131F00019360BCA3FF543F30E509541FFEE493D3
:10132F00A360010ECF54C025E060A840B8E493A39A
:10133F00FAE493A3F8E493A3C8C582C8CAC583CAC5
:10134F00F0A3C8C582C8CAC583CADFE9DEE780BE7D
:010F5F000091
:1010DE00BC000BBE0029EF8DF084FFADF022E4CCF6
:1010EE00F875F008EF2FFFEE33FEEC33FCEE9DECBF
:1010FE00984005FCEE9DFE0FD5F0E9E4CEFD22ED05
:10110E00F8F5F0EE8420D21CFEADF075F008EF2F4E
:10111E00FFED33FD4007985006D5F0F222C398FD3F
:05112E000FD5F0EA22DC
:10113300C2D5EC30E709B2D5E4C39DFDE49CFCEED7
:1011430030E715B2D5E4C39FFFE49EFE1210DEC361
:10115300E49DFDE49CFC80031210DE30D507C3E45C
:061163009FFFE49EFE2246
:10116900C5F0F8A3E028F0C5F0F8E5821582700211
:061179001583E038F022AE
:101652009004FD12117F7810EC4D4E4F70047CA562
:101662007DA5C3EC13FCED13FDEE13FEEF13FF504B
:1016720010EC64CCFCED644CFDEE644EFEEF64CEE7
:10168200FFD8DF9004FD12118BEE547FFE229004EE
:0D169200FDEEF0EFA3F0A374A5F0A3F0228D
:0C117F00E0FCA3E0FDA3E0FEA3E0FF22E3
:0C118B00ECF0A3EDF0A3EEF0A3EFF022D7
:00000001FF
